{
  "_format": "hh-sol-artifact-1",
  "contractName": "Voting",
  "sourceName": "contracts/Voting.sol",
  "abi": [
    {
      "inputs": [],
      "stateMutability": "nonpayable",
      "type": "constructor"
    },
    {
      "inputs": [
        {
          "internalType": "string",
          "name": "_name",
          "type": "string"
        }
      ],
      "name": "addCandidate",
      "outputs": [],
      "stateMutability": "nonpayable",
      "type": "function"
    },
    {
      "inputs": [
        {
          "internalType": "uint256",
          "name": "",
          "type": "uint256"
        }
      ],
      "name": "candidates",
      "outputs": [
        {
          "internalType": "uint256",
          "name": "id",
          "type": "uint256"
        },
        {
          "internalType": "string",
          "name": "name",
          "type": "string"
        },
        {
          "internalType": "uint256",
          "name": "numberOfVotes",
          "type": "uint256"
        }
      ],
      "stateMutability": "view",
      "type": "function"
    },
    {
      "inputs": [],
      "name": "checkElectionPeriod",
      "outputs": [
        {
          "internalType": "bool",
          "name": "",
          "type": "bool"
        }
      ],
      "stateMutability": "nonpayable",
      "type": "function"
    },
    {
      "inputs": [],
      "name": "electionStarted",
      "outputs": [
        {
          "internalType": "bool",
          "name": "",
          "type": "bool"
        }
      ],
      "stateMutability": "view",
      "type": "function"
    },
    {
      "inputs": [],
      "name": "electionTimer",
      "outputs": [
        {
          "internalType": "uint256",
          "name": "",
          "type": "uint256"
        }
      ],
      "stateMutability": "view",
      "type": "function"
    },
    {
      "inputs": [
        {
          "internalType": "uint256",
          "name": "",
          "type": "uint256"
        }
      ],
      "name": "listOfVoters",
      "outputs": [
        {
          "internalType": "address",
          "name": "",
          "type": "address"
        }
      ],
      "stateMutability": "view",
      "type": "function"
    },
    {
      "inputs": [],
      "name": "owner",
      "outputs": [
        {
          "internalType": "address",
          "name": "",
          "type": "address"
        }
      ],
      "stateMutability": "view",
      "type": "function"
    },
    {
      "inputs": [],
      "name": "resetAllVoterStatus",
      "outputs": [],
      "stateMutability": "nonpayable",
      "type": "function"
    },
    {
      "inputs": [],
      "name": "retrieveVotes",
      "outputs": [
        {
          "components": [
            {
              "internalType": "uint256",
              "name": "id",
              "type": "uint256"
            },
            {
              "internalType": "string",
              "name": "name",
              "type": "string"
            },
            {
              "internalType": "uint256",
              "name": "numberOfVotes",
              "type": "uint256"
            }
          ],
          "internalType": "struct Voting.Candidate[]",
          "name": "",
          "type": "tuple[]"
        }
      ],
      "stateMutability": "view",
      "type": "function"
    },
    {
      "inputs": [
        {
          "internalType": "string[]",
          "name": "_candidates",
          "type": "string[]"
        },
        {
          "internalType": "uint256",
          "name": "_votingDuration",
          "type": "uint256"
        }
      ],
      "name": "startElection",
      "outputs": [],
      "stateMutability": "nonpayable",
      "type": "function"
    },
    {
      "inputs": [
        {
          "internalType": "uint256",
          "name": "_id",
          "type": "uint256"
        }
      ],
      "name": "voteTo",
      "outputs": [],
      "stateMutability": "nonpayable",
      "type": "function"
    },
    {
      "inputs": [
        {
          "internalType": "address",
          "name": "_voter",
          "type": "address"
        }
      ],
      "name": "voterStatus",
      "outputs": [
        {
          "internalType": "bool",
          "name": "",
          "type": "bool"
        }
      ],
      "stateMutability": "view",
      "type": "function"
    },
    {
      "inputs": [
        {
          "internalType": "address",
          "name": "",
          "type": "address"
        }
      ],
      "name": "voters",
      "outputs": [
        {
          "internalType": "bool",
          "name": "",
          "type": "bool"
        }
      ],
      "stateMutability": "view",
      "type": "function"
    },
    {
      "inputs": [],
      "name": "votingEnd",
      "outputs": [
        {
          "internalType": "uint256",
          "name": "",
          "type": "uint256"
        }
      ],
      "stateMutability": "view",
      "type": "function"
    },
    {
      "inputs": [],
      "name": "votingStart",
      "outputs": [
        {
          "internalType": "uint256",
          "name": "",
          "type": "uint256"
        }
      ],
      "stateMutability": "view",
      "type": "function"
    }
  ],
  "bytecode": "0x608060405234801561001057600080fd5b5033600160006101000a81548173ffffffffffffffffffffffffffffffffffffffff021916908373ffffffffffffffffffffffffffffffffffffffff160217905550611bd2806100616000396000f3fe608060405234801561001057600080fd5b50600436106100f55760003560e01c8063576cc4f211610097578063a3ec138d11610066578063a3ec138d14610276578063d4608b72146102a6578063d4a6cac8146102b0578063d5346da1146102ce576100f5565b8063576cc4f2146101da57806385a386351461020a5780638da5cb5b146102285780639a53cbea14610246576100f5565b80633477ee2e116100d35780633477ee2e146101525780633c9a4df3146101845780633d7b995c146101a2578063462e91ec146101be576100f5565b8063031e5004146100fa5780630b56a68114610118578063101158af14610134575b600080fd5b6101026102ec565b60405161010f919061101a565b60405180910390f35b610132600480360381019061012d9190611297565b6103f1565b005b61013c6105dd565b6040516101499190611302565b60405180910390f35b61016c6004803603810190610167919061131d565b6105e3565b60405161017b93929190611394565b60405180910390f35b61018c6106a5565b6040516101999190611302565b60405180910390f35b6101bc60048036038101906101b7919061131d565b61071c565b005b6101d860048036038101906101d391906113d2565b6108f4565b005b6101f460048036038101906101ef9190611479565b610a95565b60405161020191906114c1565b60405180910390f35b610212610b51565b60405161021f9190611302565b60405180910390f35b610230610b57565b60405161023d91906114eb565b60405180910390f35b610260600480360381019061025b919061131d565b610b7d565b60405161026d91906114eb565b60405180910390f35b610290600480360381019061028b9190611479565b610bbc565b60405161029d91906114c1565b60405180910390f35b6102ae610bdc565b005b6102b8610d36565b6040516102c591906114c1565b60405180910390f35b6102d6610d73565b6040516102e391906114c1565b60405180910390f35b60606000805480602002602001604051908101604052809291908181526020016000905b828210156103e857838290600052602060002090600302016040518060600160405290816000820154815260200160018201805461034d90611535565b80601f016020809104026020016040519081016040528092919081815260200182805461037990611535565b80156103c65780601f1061039b576101008083540402835291602001916103c6565b820191906000526020600020905b8154815290600101906020018083116103a957829003601f168201915b5050505050815260200160028201548152505081526020019060010190610310565b50505050905090565b600160009054906101000a900473ffffffffffffffffffffffffffffffffffffffff1673ffffffffffffffffffffffffffffffffffffffff163373ffffffffffffffffffffffffffffffffffffffff1614610481576040517f08c379a0000000000000000000000000000000000000000000000000000000008152600401610478906115d8565b60405180910390fd5b60001515600660009054906101000a900460ff161515146104d7576040517f08c379a00000000000000000000000000000000000000000000000000000000081526004016104ce90611644565b60405180910390fd5b6000806104e49190610d86565b6104ec610bdc565b60005b8251811015610598576000604051806060016040528083815260200185848151811061051e5761051d611664565b5b6020026020010151815260200160008152509080600181540180825580915050600190039060005260206000209060030201600090919091909150600082015181600001556020820151816001019081610578919061183f565b50604082015181600201555050808061059090611940565b9150506104ef565b506001600660006101000a81548160ff02191690831515021790555042600481905550603c816105c89190611988565b426105d391906119ca565b6005819055505050565b60045481565b600081815481106105f357600080fd5b906000526020600020906003020160009150905080600001549080600101805461061c90611535565b80601f016020809104026020016040519081016040528092919081815260200182805461064890611535565b80156106955780601f1061066a57610100808354040283529160200191610695565b820191906000526020600020905b81548152906001019060200180831161067857829003601f168201915b5050505050908060020154905083565b6000600660009054906101000a900460ff166106f6576040517f08c379a00000000000000000000000000000000000000000000000000000000081526004016106ed90611a4a565b60405180910390fd5b60055442106107085760009050610719565b426005546107169190611a6a565b90505b90565b600660009054906101000a900460ff1661076b576040517f08c379a000000000000000000000000000000000000000000000000000000000815260040161076290611a4a565b60405180910390fd5b610773610d36565b6107b2576040517f08c379a00000000000000000000000000000000000000000000000000000000081526004016107a990611aea565b60405180910390fd5b6107bb33610a95565b156107fb576040517f08c379a00000000000000000000000000000000000000000000000000000000081526004016107f290611b7c565b60405180910390fd5b6000818154811061080f5761080e611664565b5b9060005260206000209060030201600201600081548092919061083190611940565b91905055506001600260003373ffffffffffffffffffffffffffffffffffffffff1673ffffffffffffffffffffffffffffffffffffffff16815260200190815260200160002060006101000a81548160ff0219169083151502179055506003339080600181540180825580915050600190039060005260206000200160009091909190916101000a81548173ffffffffffffffffffffffffffffffffffffffff021916908373ffffffffffffffffffffffffffffffffffffffff16021790555050565b600160009054906101000a900473ffffffffffffffffffffffffffffffffffffffff1673ffffffffffffffffffffffffffffffffffffffff163373ffffffffffffffffffffffffffffffffffffffff1614610984576040517f08c379a000000000000000000000000000000000000000000000000000000000815260040161097b906115d8565b60405180910390fd5b600660009054906101000a900460ff166109d3576040517f08c379a00000000000000000000000000000000000000000000000000000000081526004016109ca90611a4a565b60405180910390fd5b6109db610d36565b610a1a576040517f08c379a0000000000000000000000000000000000000000000000000000000008152600401610a1190611aea565b60405180910390fd5b60006040518060600160405280600080549050815260200183815260200160008152509080600181540180825580915050600190039060005260206000209060030201600090919091909150600082015181600001556020820151816001019081610a85919061183f565b5060408201518160020155505050565b6000600660009054906101000a900460ff16610ae6576040517f08c379a0000000000000000000000000000000000000000000000000000000008152600401610add90611a4a565b60405180910390fd5b60011515600260008473ffffffffffffffffffffffffffffffffffffffff1673ffffffffffffffffffffffffffffffffffffffff16815260200190815260200160002060009054906101000a900460ff16151503610b475760019050610b4c565b600090505b919050565b60055481565b600160009054906101000a900473ffffffffffffffffffffffffffffffffffffffff1681565b60038181548110610b8d57600080fd5b906000526020600020016000915054906101000a900473ffffffffffffffffffffffffffffffffffffffff1681565b60026020528060005260406000206000915054906101000a900460ff1681565b600160009054906101000a900473ffffffffffffffffffffffffffffffffffffffff1673ffffffffffffffffffffffffffffffffffffffff163373ffffffffffffffffffffffffffffffffffffffff1614610c6c576040517f08c379a0000000000000000000000000000000000000000000000000000000008152600401610c63906115d8565b60405180910390fd5b60005b600380549050811015610d255760006002600060038481548110610c9657610c95611664565b5b9060005260206000200160009054906101000a900473ffffffffffffffffffffffffffffffffffffffff1673ffffffffffffffffffffffffffffffffffffffff1673ffffffffffffffffffffffffffffffffffffffff16815260200190815260200160002060006101000a81548160ff0219169083151502179055508080610d1d90611940565b915050610c6f565b5060036000610d349190610daa565b565b600080610d416106a5565b1115610d505760019050610d70565b6000600660006101000a81548160ff021916908315150217905550600090505b90565b600660009054906101000a900460ff1681565b5080546000825560030290600052602060002090810190610da79190610dcb565b50565b5080546000825590600052602060002090810190610dc89190610e02565b50565b5b80821115610dfe57600080820160009055600182016000610ded9190610e1f565b600282016000905550600301610dcc565b5090565b5b80821115610e1b576000816000905550600101610e03565b5090565b508054610e2b90611535565b6000825580601f10610e3d5750610e5c565b601f016020900490600052602060002090810190610e5b9190610e02565b5b50565b600081519050919050565b600082825260208201905092915050565b6000819050602082019050919050565b6000819050919050565b610e9e81610e8b565b82525050565b600081519050919050565b600082825260208201905092915050565b60005b83811015610ede578082015181840152602081019050610ec3565b60008484015250505050565b6000601f19601f8301169050919050565b6000610f0682610ea4565b610f108185610eaf565b9350610f20818560208601610ec0565b610f2981610eea565b840191505092915050565b6000606083016000830151610f4c6000860182610e95565b5060208301518482036020860152610f648282610efb565b9150506040830151610f796040860182610e95565b508091505092915050565b6000610f908383610f34565b905092915050565b6000602082019050919050565b6000610fb082610e5f565b610fba8185610e6a565b935083602082028501610fcc85610e7b565b8060005b858110156110085784840389528151610fe98582610f84565b9450610ff483610f98565b925060208a01995050600181019050610fd0565b50829750879550505050505092915050565b600060208201905081810360008301526110348184610fa5565b905092915050565b6000604051905090565b600080fd5b600080fd5b600080fd5b7f4e487b7100000000000000000000000000000000000000000000000000000000600052604160045260246000fd5b61108d82610eea565b810181811067ffffffffffffffff821117156110ac576110ab611055565b5b80604052505050565b60006110bf61103c565b90506110cb8282611084565b919050565b600067ffffffffffffffff8211156110eb576110ea611055565b5b602082029050602081019050919050565b600080fd5b600080fd5b600067ffffffffffffffff82111561112157611120611055565b5b61112a82610eea565b9050602081019050919050565b82818337600083830152505050565b600061115961115484611106565b6110b5565b90508281526020810184848401111561117557611174611101565b5b611180848285611137565b509392505050565b600082601f83011261119d5761119c611050565b5b81356111ad848260208601611146565b91505092915050565b60006111c96111c4846110d0565b6110b5565b905080838252602082019050602084028301858111156111ec576111eb6110fc565b5b835b8181101561123357803567ffffffffffffffff81111561121157611210611050565b5b80860161121e8982611188565b855260208501945050506020810190506111ee565b5050509392505050565b600082601f83011261125257611251611050565b5b81356112628482602086016111b6565b91505092915050565b61127481610e8b565b811461127f57600080fd5b50565b6000813590506112918161126b565b92915050565b600080604083850312156112ae576112ad611046565b5b600083013567ffffffffffffffff8111156112cc576112cb61104b565b5b6112d88582860161123d565b92505060206112e985828601611282565b9150509250929050565b6112fc81610e8b565b82525050565b600060208201905061131760008301846112f3565b92915050565b60006020828403121561133357611332611046565b5b600061134184828501611282565b91505092915050565b600082825260208201905092915050565b600061136682610ea4565b611370818561134a565b9350611380818560208601610ec0565b61138981610eea565b840191505092915050565b60006060820190506113a960008301866112f3565b81810360208301526113bb818561135b565b90506113ca60408301846112f3565b949350505050565b6000602082840312156113e8576113e7611046565b5b600082013567ffffffffffffffff8111156114065761140561104b565b5b61141284828501611188565b91505092915050565b600073ffffffffffffffffffffffffffffffffffffffff82169050919050565b60006114468261141b565b9050919050565b6114568161143b565b811461146157600080fd5b50565b6000813590506114738161144d565b92915050565b60006020828403121561148f5761148e611046565b5b600061149d84828501611464565b91505092915050565b60008115159050919050565b6114bb816114a6565b82525050565b60006020820190506114d660008301846114b2565b92915050565b6114e58161143b565b82525050565b600060208201905061150060008301846114dc565b92915050565b7f4e487b7100000000000000000000000000000000000000000000000000000000600052602260045260246000fd5b6000600282049050600182168061154d57607f821691505b6020821081036115605761155f611506565b5b50919050565b7f596f7520617265206e6f7420617574686f726973656420746f2073746172742060008201527f616e20656c656374696f6e000000000000000000000000000000000000000000602082015250565b60006115c2602b8361134a565b91506115cd82611566565b604082019050919050565b600060208201905081810360008301526115f1816115b5565b9050919050565b7f454c656374696f6e2069732063757272656e746c79206f6e676f696e67000000600082015250565b600061162e601d8361134a565b9150611639826115f8565b602082019050919050565b6000602082019050818103600083015261165d81611621565b9050919050565b7f4e487b7100000000000000000000000000000000000000000000000000000000600052603260045260246000fd5b60008190508160005260206000209050919050565b60006020601f8301049050919050565b600082821b905092915050565b6000600883026116f57fffffffffffffffffffffffffffffffffffffffffffffffffffffffffffffffff826116b8565b6116ff86836116b8565b95508019841693508086168417925050509392505050565b6000819050919050565b600061173c61173761173284610e8b565b611717565b610e8b565b9050919050565b6000819050919050565b61175683611721565b61176a61176282611743565b8484546116c5565b825550505050565b600090565b61177f611772565b61178a81848461174d565b505050565b5b818110156117ae576117a3600082611777565b600181019050611790565b5050565b601f8211156117f3576117c481611693565b6117cd846116a8565b810160208510156117dc578190505b6117f06117e8856116a8565b83018261178f565b50505b505050565b600082821c905092915050565b6000611816600019846008026117f8565b1980831691505092915050565b600061182f8383611805565b9150826002028217905092915050565b61184882610ea4565b67ffffffffffffffff81111561186157611860611055565b5b61186b8254611535565b6118768282856117b2565b600060209050601f8311600181146118a95760008415611897578287015190505b6118a18582611823565b865550611909565b601f1984166118b786611693565b60005b828110156118df578489015182556001820191506020850194506020810190506118ba565b868310156118fc57848901516118f8601f891682611805565b8355505b6001600288020188555050505b505050505050565b7f4e487b7100000000000000000000000000000000000000000000000000000000600052601160045260246000fd5b600061194b82610e8b565b91507fffffffffffffffffffffffffffffffffffffffffffffffffffffffffffffffff820361197d5761197c611911565b5b600182019050919050565b600061199382610e8b565b915061199e83610e8b565b92508282026119ac81610e8b565b915082820484148315176119c3576119c2611911565b5b5092915050565b60006119d582610e8b565b91506119e083610e8b565b92508282019050808211156119f8576119f7611911565b5b92915050565b7f4e6f20656c656374696f6e207965740000000000000000000000000000000000600082015250565b6000611a34600f8361134a565b9150611a3f826119fe565b602082019050919050565b60006020820190508181036000830152611a6381611a27565b9050919050565b6000611a7582610e8b565b9150611a8083610e8b565b9250828203905081811115611a9857611a97611911565b5b92915050565b7f456c656374696f6e20706572696f642068617320456e64656400000000000000600082015250565b6000611ad460198361134a565b9150611adf82611a9e565b602082019050919050565b60006020820190508181036000830152611b0381611ac7565b9050919050565b7f596f7520616c726561647920766f7465642e20596f752063616e206f6e6c792060008201527f766f7465206f6e63652e00000000000000000000000000000000000000000000602082015250565b6000611b66602a8361134a565b9150611b7182611b0a565b604082019050919050565b60006020820190508181036000830152611b9581611b59565b905091905056fea26469706673582212204f52669d778a1535308a4e1fc32e9d62b2e0c32477fef3866bd6e272e12fa3f364736f6c63430008120033",
  "linkReferences": {},
  "deployedLinkReferences": {}
}